{"abi":[{"type":"function","name":"DOMAIN_SEPARATOR","inputs":[],"outputs":[{"name":"","type":"bytes32","internalType":"bytes32"}],"stateMutability":"view"},{"type":"function","name":"addProver","inputs":[{"name":"prover","type":"address","internalType":"address"}],"outputs":[],"stateMutability":"nonpayable"},{"type":"function","name":"addRouter","inputs":[{"name":"router","type":"address","internalType":"address"}],"outputs":[],"stateMutability":"nonpayable"},{"type":"function","name":"aggregateVerifier","inputs":[],"outputs":[{"name":"","type":"address","internalType":"contract AggregateVerifierV1"}],"stateMutability":"view"},{"type":"function","name":"blockHash","inputs":[],"outputs":[{"name":"","type":"bytes32","internalType":"bytes32"}],"stateMutability":"view"},{"type":"function","name":"blockHeight","inputs":[],"outputs":[{"name":"","type":"uint256","internalType":"uint256"}],"stateMutability":"view"},{"type":"function","name":"burn","inputs":[{"name":"to","type":"address","internalType":"address"},{"name":"proof","type":"bytes","internalType":"bytes"},{"name":"nullifer","type":"bytes32","internalType":"bytes32"},{"name":"value","type":"bytes32","internalType":"bytes32"},{"name":"source","type":"bytes32","internalType":"bytes32"},{"name":"sig","type":"bytes32","internalType":"bytes32"}],"outputs":[],"stateMutability":"nonpayable"},{"type":"function","name":"burnToAddress","inputs":[{"name":"kind","type":"bytes32","internalType":"bytes32"},{"name":"to","type":"bytes32","internalType":"bytes32"},{"name":"proof","type":"bytes","internalType":"bytes"},{"name":"nullifier","type":"bytes32","internalType":"bytes32"},{"name":"value","type":"bytes32","internalType":"bytes32"},{"name":"source","type":"bytes32","internalType":"bytes32"},{"name":"sig","type":"bytes32","internalType":"bytes32"}],"outputs":[],"stateMutability":"nonpayable"},{"type":"function","name":"burnToRouter","inputs":[{"name":"kind","type":"bytes32","internalType":"bytes32"},{"name":"msgHash","type":"bytes32","internalType":"bytes32"},{"name":"proof","type":"bytes","internalType":"bytes"},{"name":"nullifier","type":"bytes32","internalType":"bytes32"},{"name":"value","type":"bytes32","internalType":"bytes32"},{"name":"source","type":"bytes32","internalType":"bytes32"},{"name":"sig","type":"bytes32","internalType":"bytes32"},{"name":"router","type":"address","internalType":"address"},{"name":"routerCalldata","type":"bytes","internalType":"bytes"},{"name":"returnAddress","type":"address","internalType":"address"}],"outputs":[],"stateMutability":"nonpayable"},{"type":"function","name":"burnVerifier","inputs":[],"outputs":[{"name":"","type":"address","internalType":"contract BurnVerifierV1"}],"stateMutability":"view"},{"type":"function","name":"burnVerifierV2","inputs":[],"outputs":[{"name":"","type":"address","internalType":"contract BurnVerifierV2"}],"stateMutability":"view"},{"type":"function","name":"bytes32ToAddress","inputs":[{"name":"_bytes32","type":"bytes32","internalType":"bytes32"}],"outputs":[{"name":"","type":"address","internalType":"address"}],"stateMutability":"pure"},{"type":"function","name":"containsRootHashes","inputs":[{"name":"hashes","type":"bytes32[6]","internalType":"bytes32[6]"}],"outputs":[{"name":"","type":"bool","internalType":"bool"}],"stateMutability":"view"},{"type":"function","name":"currentRootHash","inputs":[],"outputs":[{"name":"","type":"bytes32","internalType":"bytes32"}],"stateMutability":"view"},{"type":"function","name":"gasPerRouterCall","inputs":[],"outputs":[{"name":"","type":"uint256","internalType":"uint256"}],"stateMutability":"view"},{"type":"function","name":"getBurn","inputs":[{"name":"key","type":"bytes32","internalType":"bytes32"}],"outputs":[{"name":"","type":"tuple","internalType":"struct Burn","components":[{"name":"to","type":"address","internalType":"address"},{"name":"amount","type":"uint256","internalType":"uint256"}]}],"stateMutability":"view"},{"type":"function","name":"getMint","inputs":[{"name":"key","type":"bytes32","internalType":"bytes32"}],"outputs":[{"name":"","type":"uint256","internalType":"uint256"}],"stateMutability":"view"},{"type":"function","name":"getRootHashes","inputs":[],"outputs":[{"name":"","type":"bytes32[64]","internalType":"bytes32[64]"}],"stateMutability":"view"},{"type":"function","name":"getValidatorSets","inputs":[{"name":"from","type":"uint256","internalType":"uint256"}],"outputs":[{"name":"","type":"tuple[]","internalType":"struct PublicValidatorSet[]","components":[{"name":"validators","type":"address[]","internalType":"address[]"},{"name":"validFrom","type":"uint256","internalType":"uint256"}]}],"stateMutability":"view"},{"type":"function","name":"hasBurn","inputs":[{"name":"nullifier","type":"bytes32","internalType":"bytes32"}],"outputs":[{"name":"","type":"bool","internalType":"bool"}],"stateMutability":"view"},{"type":"function","name":"initialize","inputs":[{"name":"owner","type":"address","internalType":"address"},{"name":"_usdcAddress","type":"address","internalType":"address"},{"name":"_aggregateVerifier","type":"address","internalType":"address"},{"name":"_mintVerifier","type":"address","internalType":"address"},{"name":"_burnVerifier","type":"address","internalType":"address"},{"name":"prover","type":"address","internalType":"address"},{"name":"initialValidators","type":"address[]","internalType":"address[]"},{"name":"emptyMerkleTreeRootHash","type":"bytes32","internalType":"bytes32"}],"outputs":[],"stateMutability":"nonpayable"},{"type":"function","name":"initializeV2","inputs":[],"outputs":[],"stateMutability":"nonpayable"},{"type":"function","name":"initializeV3","inputs":[],"outputs":[],"stateMutability":"nonpayable"},{"type":"function","name":"initializeV4","inputs":[],"outputs":[],"stateMutability":"nonpayable"},{"type":"function","name":"initializeV5","inputs":[{"name":"_burnVerifierV2","type":"address","internalType":"address"}],"outputs":[],"stateMutability":"nonpayable"},{"type":"function","name":"initializeV6","inputs":[],"outputs":[],"stateMutability":"nonpayable"},{"type":"function","name":"isRouterWhitelisted","inputs":[{"name":"router","type":"address","internalType":"address"}],"outputs":[{"name":"","type":"bool","internalType":"bool"}],"stateMutability":"view"},{"type":"function","name":"mint","inputs":[{"name":"proof","type":"bytes","internalType":"bytes"},{"name":"commitment","type":"bytes32","internalType":"bytes32"},{"name":"value","type":"bytes32","internalType":"bytes32"},{"name":"source","type":"bytes32","internalType":"bytes32"}],"outputs":[],"stateMutability":"nonpayable"},{"type":"function","name":"mintVerifier","inputs":[],"outputs":[{"name":"","type":"address","internalType":"contract MintVerifierV1"}],"stateMutability":"view"},{"type":"function","name":"mintWithAuthorization","inputs":[{"name":"proof","type":"bytes","internalType":"bytes"},{"name":"commitment","type":"bytes32","internalType":"bytes32"},{"name":"value","type":"bytes32","internalType":"bytes32"},{"name":"source","type":"bytes32","internalType":"bytes32"},{"name":"from","type":"address","internalType":"address"},{"name":"validAfter","type":"uint256","internalType":"uint256"},{"name":"validBefore","type":"uint256","internalType":"uint256"},{"name":"nonce","type":"bytes32","internalType":"bytes32"},{"name":"v","type":"uint256","internalType":"uint256"},{"name":"r","type":"bytes32","internalType":"bytes32"},{"name":"s","type":"bytes32","internalType":"bytes32"},{"name":"v2","type":"uint256","internalType":"uint256"},{"name":"r2","type":"bytes32","internalType":"bytes32"},{"name":"s2","type":"bytes32","internalType":"bytes32"}],"outputs":[],"stateMutability":"nonpayable"},{"type":"function","name":"nextRootHashIndex","inputs":[],"outputs":[{"name":"","type":"uint256","internalType":"uint256"}],"stateMutability":"view"},{"type":"function","name":"owner","inputs":[],"outputs":[{"name":"","type":"address","internalType":"address"}],"stateMutability":"view"},{"type":"function","name":"removeRouter","inputs":[{"name":"router","type":"address","internalType":"address"}],"outputs":[],"stateMutability":"nonpayable"},{"type":"function","name":"renounceOwnership","inputs":[],"outputs":[],"stateMutability":"nonpayable"},{"type":"function","name":"rolledUpLeafs","inputs":[{"name":"","type":"bytes32","internalType":"bytes32"}],"outputs":[{"name":"","type":"bool","internalType":"bool"}],"stateMutability":"view"},{"type":"function","name":"rootHashes","inputs":[{"name":"","type":"uint256","internalType":"uint256"}],"outputs":[{"name":"","type":"bytes32","internalType":"bytes32"}],"stateMutability":"view"},{"type":"function","name":"setGasPerRouterCall","inputs":[{"name":"_gasPerRouterCall","type":"uint256","internalType":"uint256"}],"outputs":[],"stateMutability":"nonpayable"},{"type":"function","name":"setRoot","inputs":[{"name":"newRoot","type":"bytes32","internalType":"bytes32"}],"outputs":[],"stateMutability":"nonpayable"},{"type":"function","name":"setValidators","inputs":[{"name":"validFrom","type":"uint256","internalType":"uint256"},{"name":"validators","type":"address[]","internalType":"address[]"}],"outputs":[],"stateMutability":"nonpayable"},{"type":"function","name":"substituteBurn","inputs":[{"name":"nullifier","type":"bytes32","internalType":"bytes32"},{"name":"amount","type":"uint256","internalType":"uint256"}],"outputs":[],"stateMutability":"nonpayable"},{"type":"function","name":"substitutedBurns","inputs":[{"name":"","type":"bytes32","internalType":"bytes32"}],"outputs":[{"name":"","type":"bool","internalType":"bool"}],"stateMutability":"view"},{"type":"function","name":"transferOwnership","inputs":[{"name":"newOwner","type":"address","internalType":"address"}],"outputs":[],"stateMutability":"nonpayable"},{"type":"function","name":"usdc","inputs":[],"outputs":[{"name":"","type":"address","internalType":"contract IUSDC"}],"stateMutability":"view"},{"type":"function","name":"verifyBlock","inputs":[{"name":"aggrProof","type":"bytes","internalType":"bytes"},{"name":"aggrInstances","type":"bytes32[12]","internalType":"bytes32[12]"},{"name":"oldRoot","type":"bytes32","internalType":"bytes32"},{"name":"newRoot","type":"bytes32","internalType":"bytes32"},{"name":"utxoHashes","type":"bytes32[18]","internalType":"bytes32[18]"},{"name":"otherHashFromBlockHash","type":"bytes32","internalType":"bytes32"},{"name":"height","type":"uint256","internalType":"uint256"},{"name":"signatures","type":"tuple[]","internalType":"struct Signature[]","components":[{"name":"r","type":"bytes32","internalType":"bytes32"},{"name":"s","type":"bytes32","internalType":"bytes32"},{"name":"v","type":"uint256","internalType":"uint256"}]}],"outputs":[],"stateMutability":"nonpayable"},{"type":"function","name":"verifyBlock2","inputs":[{"name":"aggrProof","type":"bytes","internalType":"bytes"},{"name":"aggrInstances","type":"bytes32[12]","internalType":"bytes32[12]"},{"name":"oldRoot","type":"bytes32","internalType":"bytes32"},{"name":"newRoot","type":"bytes32","internalType":"bytes32"},{"name":"utxoHashes","type":"bytes32[18]","internalType":"bytes32[18]"},{"name":"otherHashFromBlockHash","type":"bytes32","internalType":"bytes32"},{"name":"height","type":"uint256","internalType":"uint256"},{"name":"signatures","type":"tuple[]","internalType":"struct Signature[]","components":[{"name":"r","type":"bytes32","internalType":"bytes32"},{"name":"s","type":"bytes32","internalType":"bytes32"},{"name":"v","type":"uint256","internalType":"uint256"}]},{"name":"gasPerBurnCall","type":"uint256","internalType":"uint256"}],"outputs":[],"stateMutability":"nonpayable"},{"type":"function","name":"version","inputs":[],"outputs":[{"name":"","type":"uint8","internalType":"uint8"}],"stateMutability":"view"},{"type":"function","name":"wasBurnSubstituted","inputs":[{"name":"nullifier","type":"bytes32","internalType":"bytes32"}],"outputs":[{"name":"","type":"bool","internalType":"bool"}],"stateMutability":"view"},{"type":"event","name":"BlockVerified","inputs":[{"name":"height","type":"uint256","indexed":true,"internalType":"uint256"},{"name":"root","type":"bytes32","indexed":false,"internalType":"bytes32"}],"anonymous":false},{"type":"event","name":"BurnAdded","inputs":[{"name":"nullifier","type":"bytes32","indexed":true,"internalType":"bytes32"},{"name":"amount","type":"uint256","indexed":false,"internalType":"uint256"}],"anonymous":false},{"type":"event","name":"Burned","inputs":[{"name":"nullifier","type":"bytes32","indexed":true,"internalType":"bytes32"},{"name":"substitute","type":"bool","indexed":false,"internalType":"bool"},{"name":"success","type":"bool","indexed":false,"internalType":"bool"}],"anonymous":false},{"type":"event","name":"BurnedToAddress","inputs":[{"name":"to","type":"address","indexed":true,"internalType":"address"},{"name":"value","type":"uint256","indexed":false,"internalType":"uint256"}],"anonymous":false},{"type":"event","name":"BurnedToRouter","inputs":[{"name":"router","type":"address","indexed":true,"internalType":"address"},{"name":"value","type":"uint256","indexed":false,"internalType":"uint256"}],"anonymous":false},{"type":"event","name":"Initialized","inputs":[{"name":"version","type":"uint64","indexed":false,"internalType":"uint64"}],"anonymous":false},{"type":"event","name":"MintAdded","inputs":[{"name":"commitment","type":"bytes32","indexed":true,"internalType":"bytes32"},{"name":"amount","type":"uint256","indexed":false,"internalType":"uint256"}],"anonymous":false},{"type":"event","name":"Minted","inputs":[{"name":"commitment","type":"bytes32","indexed":true,"internalType":"bytes32"},{"name":"value","type":"uint256","indexed":false,"internalType":"uint256"}],"anonymous":false},{"type":"event","name":"OwnershipTransferred","inputs":[{"name":"previousOwner","type":"address","indexed":true,"internalType":"address"},{"name":"newOwner","type":"address","indexed":true,"internalType":"address"}],"anonymous":false},{"type":"event","name":"ValidatorSetAdded","inputs":[{"name":"index","type":"uint256","indexed":false,"internalType":"uint256"},{"name":"validFrom","type":"uint256","indexed":false,"internalType":"uint256"}],"anonymous":false},{"type":"error","name":"ECDSAInvalidSignature","inputs":[]},{"type":"error","name":"ECDSAInvalidSignatureLength","inputs":[{"name":"length","type":"uint256","internalType":"uint256"}]},{"type":"error","name":"ECDSAInvalidSignatureS","inputs":[{"name":"s","type":"bytes32","internalType":"bytes32"}]},{"type":"error","name":"InvalidInitialization","inputs":[]},{"type":"error","name":"NotInitializing","inputs":[]},{"type":"error","name":"OwnableInvalidOwner","inputs":[{"name":"owner","type":"address","internalType":"address"}]},{"type":"error","name":"OwnableUnauthorizedAccount","inputs":[{"name":"account","type":"address","internalType":"address"}]}],"bytecode":{"object":"0x60808060405234620000bd577ff0c57e16840df040f15088dc2f81fe391c3923bec73e23a9662efc9c229c6a009081549060ff8260401c16620000ae57506001600160401b036002600160401b03198282160162000068575b604051613b9e9081620000c28239f35b6001600160401b031990911681179091556040519081527fc7f505b2f371ae2175ee4913f4499e1f2633a7b5936321eed1cdaeb6115181d290602090a15f808062000058565b63f92ee8a960e01b8152600490fd5b5f80fdfe6080806040526004361015610012575f80fd5b5f90813560e01c908162b0938d14612ca85750806309fe537d14612c855780630aef023f14612c465780631000b72914612ae157806316b5c12214612ac35780631d49e45714612a8657806324ca984e14612a015780633139332e14610d475780633644e515146129e657806338e454b1146129685780633e413bee1461293f57806345873f3f14612619578063485ee1e4146125fa5780634fb4eee314611fe357806353b9355714611fb657806354a0860614611f3857806354ace93314611ac357806354fd4d5014611aa35780635a02369314611a005780635cd8a76b146119825780635ced058e1461195a5780635eeba6dd1461144c5780636779b7c21461142e5780636ae0b154146113ed578063715018a61461138457806382f15a3b146112565780638da5cb5b14611221578063a10e57a81461118a578063a2ce9c1f14611160578063a65ddebd14611137578063a91eebf514611114578063afbd8c39146110b0578063b506165814610d9f578063c072bd8814610d76578063c1b1535914610d47578063c3a716eb14610d1e578063c832fe5f14610c99578063cb32583314610a7d578063ceace3b8146107ec578063d9581277146107bd578063dab5f34014610798578063e4408e4614610731578063e795594d1461047e578063ef0feff91461028d578063f22a195e1461026f578063f2fde38b146102425763f44ff71214610222575f80fd5b3461023f578060031936011261023f576020600754604051908152f35b80fd5b503461023f57602036600319011261023f5761026c61025f612ccd565b610267612e42565b612e7a565b80f35b503461023f578060031936011261023f576020600654604051908152f35b503461023f576020908160031936011261023f5790600435604d546102b28282612faf565b916102bc83612fea565b926102ca6040519485612e21565b8084526102d9601f1991612fea565b01855b818110610451575050805b8281106103a25750505060405192828493840190808552835180925260408501928160408460051b880101950193815b8483106103245787870388f35b9193959092949650603f198882030183528487516040830190805191604085528251809152836060860193019086905b80821061037f5750505090600193838080940151910152980193019301909287969593949294610317565b82516001600160a01b031685528a95948501949092019160019190910190610354565b808694959652604c8652604084206001600281830192015490604051926103c884612dea565b60405191828b83549182815201928a528b8a20918a915b8d818410610433575050505050918161040261042a969593610424950382612e21565b8252898201526104128584612faf565b9061041d828a61300f565b528761300f565b50613001565b949392946102e7565b84546001600160a01b031686529094019392810192918101916103df565b94808097959660405161046381612dea565b60608152878382015282828a010152019050959493956102dc565b503461023f57604036600319011261023f576004356001600160401b036024803582811161072d576104b4903690600401612d56565b92906104be612e42565b604d938454801580156106f8575b15610684575f52604c9160209280845287600260405f20015586545f526001948560405f200190841161067157600160401b8411610671578054848255808510610656575b5082905f52845f2090865f5b86811061063d57505050505f5b838110610587575050505060407ffd204c7043da2bcc4dc261ed00edac3bb5e2b8c5c60c7535c4d17144759fc73291855496825191888352820152a1830180931161057457505580f35b634e487b7160e01b5f9081526011600452fd5b87545f818152838752604090206001600160a01b039190826105b26105ad868a8a61304d565b613039565b165f52875260ff60405f2054166105fe57906105f992915f5283875260405f20906105e16105ad84898961304d565b165f52865260405f208760ff19825416179055613001565b61052a565b60405162461bcd60e51b8152600481018890526018818b01527756616c696461746f7220616c72656164792065786973747360401b6044820152606490fd5b8761064784613039565b9301928185015501879061051d565b61066b90825f5285875f209182019101613023565b5f610511565b86634e487b7160e01b5f5260416004525ffd5b60405162461bcd60e51b8152602060048201526041818701527f4e65772076616c696461746f7220736574206d7573742068617665206120766160448201527f6c696446726f6d2067726561746572207468616e20746865206c6173742073656064820152601d60fa1b608482015260a490fd5b505f19810181811161071a575f52604c60205286600260405f200154106104cc565b85634e487b7160e01b5f5260116004525ffd5b8480fd5b503461023f57602036600319011261023f5760408181926020835161075581612dea565b82815201526004358152604b60205220815161077081612dea565b81546001600160a01b0316808252600190920154602091820190815283519283525190820152f35b503461023f57602036600319011261023f576107b2612e42565b61026c600435612f73565b503461023f57602036600319011261023f5760ff60406020926004358152605484522054166040519015158152f35b503461023f57604036600319011261023f576004356024358183526020906053825260ff604085205416610a2d578284526054825260ff6040852054166109ea576005546040516323b872dd60e01b8152336004820152306024820152604481018390526001600160a01b03918490829060649082908a9087165af180156109df576109b2575b508385526053835260408520926001938460ff198254161790555f8490868152604f835285604082205480155f146109a257505050855f52604b82528460405f2001541561099b575b808061098b575b867f96813a8b234bbe2be894787f4e2d871140bfdf50accf5b29ac94862620e5fde86040805189815284151587820152a281610983575b501561094757604b90858752604f81528660408120556040519561091d87612dea565b33875281870194855287525260408520935184546001600160a01b03191691161783555191015580f35b6064906040519062461bcd60e51b825260048201526015602482015274149bdb1b1d5c158d8e88109d5c9b8819985a5b1959605a1b6044820152fd5b90505f6108fa565b506109968487613773565b6108c3565b505f6108bc565b036109965750610996848761382f565b6109d190843d86116109d8575b6109c98183612e21565b810190613365565b505f610873565b503d6109bf565b6040513d88823e3d90fd5b6064826040519062461bcd60e51b825280600483015260248201527f526f6c6c757056363a204c65616620616c726561647920726f6c6c65642075706044820152fd5b60405162461bcd60e51b815260048101839052602260248201527f526f6c6c757056363a204275726e20616c726561647920737562737469747574604482015261195960f21b6064820152608490fd5b503461023f5760c036600319011261023f57610a97612ccd565b6001600160401b039190602435838111610c9557610ab9903690600401612cf9565b6044359260643591610aca8261337d565b6004546040516001600160a01b039890939189169160a0850191821185831017610c8157899160405216928381526020958787830152856040830152608435606083015260a4356080830152823b15610c7d579290918892610b45604051958694625a2d8360e11b865260c0600487015260c48601916131f2565b908489602486015b60058310610c60575050505082809103915afa80156109df57908691610c4c575b5050835f52604f835260405f20541580610c39575b15610bfe5760018495967f692f937d805cd146b9f88bbe97476a1967f0eff2674a00bcd1810c62710a99d4955f52604f85525f604081205560405192610bc884612dea565b835284830190848252878952604b8652604089209351166001600160601b0360a01b84541617835551910155604051908152a280f35b60405162461bcd60e51b81526004810184905260136024820152724275726e20616c72656164792065786973747360681b6044820152606490fd5b50604b8352600160405f20015415610b83565b610c5590612da1565b61072d57845f610b6e565b835181528d975088965092810192600192909201918b9101610b4d565b8880fd5b634e487b7160e01b5f52604160045260245ffd5b8280fd5b503461023f578060031936011261023f5760405190610cb782612e05565b610800809236903760405190600881835b60408210610d085750505090610cdd81612e05565b6040519190825b60408310610cf157505050f35b600190825181526020809101920192019190610ce4565b6001602081928554815201930191019091610cc8565b503461023f578060031936011261023f576004546040516001600160a01b039091168152602090f35b503461023f57602036600319011261023f5760ff60406020926004358152605384522054166040519015158152f35b503461023f578060031936011261023f576002546040516001600160a01b039091168152602090f35b503461023f576101c036600319011261023f576001600160401b03906004358281116110ac57610dd3903690600401612cf9565b602435916044359160643595610de7612ce3565b9060a4359260c4359260e43591888a52602096604a885260408b205461107157604051948886017fc635e9b551a1a2bbfb4fa770e7a75f4bd6b213e8b5cd5e22ee395e8760d863c081528b60408801528a60608801528d608088015260018060a01b03809516968760a08201528960c08201528860e08201526101008781830152815261012081019281841090841117610c8157610ed68692610edf928a956040525190208c610e9561314f565b916040519182019261190160f01b84526022830152604282015260428152610ebc81612dcf565b5190206101a43590610184359060ff610164351690613212565b909291926132a0565b160361103b578a9b8360039c999a9b9c541660405191610efe83612d86565b8d83528c8c8401526040830152803b1561103757610f35938a9360405195869485938493635e65f68960e11b855260048501613323565b03915afa90811561102c578791611018575b50506005541690813b156110145785936040519586946377aadf6360e11b865260048601523060248601528960448601526064850152608484015260a483015281836101049260ff84351660c484015261012493843560e485015261014435908401525af1801561100957610ff1575b5091837fcf80b092b21d743e1302ae84a7796d12b75cb47ef6b3a19ff386eadfdcb3fd289352604a8252806040862055604051908152a280f35b610ffa90612da1565b61100557835f610fb7565b8380fd5b6040513d84823e3d90fd5b8580fd5b61102190612da1565b61101457855f610f47565b6040513d89823e3d90fd5b8980fd5b60405162461bcd60e51b815260048101899052600e60248201526d24b73b30b634b21039b4b3b732b960911b6044820152606490fd5b60405162461bcd60e51b81526020600482015260136024820152724d696e7420616c72656164792065786973747360681b6044820152606490fd5b5080fd5b503461023f5760c036600319011261023f57366023121561023f576040516110d781612db4565b8060c49136831161100557602093506004905b83821061110557846110fb8461306e565b6040519015158152f35b813581529084019084016110ea565b503461023f578060031936011261023f57602061112f612fbc565b604051908152f35b503461023f578060031936011261023f576052546040516001600160a01b039091168152602090f35b503461023f57602036600319011261023f5760406020916004358152604a83522054604051908152f35b503461023f578060031936011261023f575f80516020613b49833981519152805460ff8160401c16801561120d575b6111fb576006908160ff198554161784556207a12060555568ffffffffffffffffff19161790555f80516020613b29833981519152602060405160068152a180f35b60405163f92ee8a960e01b8152600490fd5b5060066001600160401b03821610156111b9565b503461023f578060031936011261023f575f80516020613b09833981519152546040516001600160a01b039091168152602090f35b503461023f5760e036600319011261023f576024356004356044356001600160401b0381116110055761128d903690600401612cf9565b90926064359385608435936112a286156134ac565b6001600160a01b03848116949093906112ba8661337d565b8460525416604051916112cc83612db4565b898352602083015289604083015287606083015260a435608083015260c43560a0830152803b1561072d5761131a9385936040519586948593849363e261a9cb60e01b8552600485016134e7565b03915afa80156110095761136a575b50509060016020939261135d7f692f937d805cd146b9f88bbe97476a1967f0eff2674a00bcd1810c62710a99d49688613436565b60405192610bc884612dea565b6113779094939294612da1565b611014579091855f611329565b503461023f578060031936011261023f5761139d612e42565b5f80516020613b0983398151915280546001600160a01b031981169091555f906001600160a01b03167f8be0079c531659141344cd1fd0a4f28419497f9722a3daafe3b4186f6b6457e08280a380f35b503461023f57602036600319011261023f57611407612ccd565b61140f612e42565b6001600160a01b03168152605160205260408120805460ff1916905580f35b503461023f578060031936011261023f576020604854604051908152f35b503461023f5761010036600319011261023f57611467612ccd565b6024356001600160a01b038116810361195657604435906001600160a01b038216820361195657606435906001600160a01b0382168203611956576114aa612ce3565b60a43591906001600160a01b03831683036119565760c4356001600160401b038111611952576114de903690600401612d56565b9490955f80516020613b4983398151915254976001600160401b0389161580611944575b60016001600160401b038b1614908161193a575b159081611931575b506111fb5761156c9060016001600160401b03198b16175f80516020613b498339815191525560ff8a60401c1615611905575b8a5460ff19166001178b55611564612f45565b610267612f45565b611574612f06565b602081519101206115df6115ed611589612f28565b8051602091820120604080517f8b73c3c69bb8fe3d512ecc4cf759cc79239f7b179b0ffacaa9a75d522b39400f9381019384529081019590955260608501524660808501523060a08501529291829060c0820190565b03601f198101835282612e21565b5190206001556001600160601b0360a01b9360018060a01b031684600554161760055560018060a01b031683600254161760025560018060a01b031682600354161760035560018060a01b031690600454161760045560018060a01b03168452604960205260016040852055604d54801580156118ec575b15611877575f52604c6020525f6002604082200155604d545f52600160405f20016001600160401b038211610c8157600160401b8211610c8157805482825580831061185b575b5082905f5260205f20905f5b838110611840575050505f5b81811061178257505050604d54907ffd204c7043da2bcc4dc261ed00edac3bb5e2b8c5c60c7535c4d17144759fc732604080518481525f6020820152a16001820180921161176e5760ff91604d5561171d60e435612f73565b60401c16156117295780f35b68ff0000000000000000195f80516020613b4983398151915254165f80516020613b49833981519152555f80516020613b29833981519152602060405160018152a180f35b634e487b7160e01b5f52601160045260245ffd5b604d545f818152604c602052604090209091906001600160a01b036117ab6105ad84878961304d565b165f5260205260ff60405f205416611800576117fb915f52604c60205260405f2060018060a01b036117e16105ad84878961304d565b165f5260205260405f20600160ff19825416179055613001565b6116c4565b60405162461bcd60e51b815260206004820152601860248201527756616c696461746f7220616c72656164792065786973747360401b6044820152606490fd5b600190602061184e84613039565b93019281850155016116b8565b61187190825f528360205f209182019101613023565b5f6116ac565b60405162461bcd60e51b815260206004820152604160248201527f4e65772076616c696461746f7220736574206d7573742068617665206120766160448201527f6c696446726f6d2067726561746572207468616e20746865206c6173742073656064820152601d60fa1b608482015260a490fd5b505f19810181811161176e575f52604c6020525f611665565b68ffffffffffffffffff198a1668010000000000000001175f80516020613b4983398151915255611551565b9050155f61151e565b303b159150611516565b5060ff8960401c1615611502565b8780fd5b5f80fd5b503461023f57602036600319011261023f576040516004356001600160a01b03168152602090f35b503461023f578060031936011261023f575f80516020613b49833981519152805460ff8160401c1680156119ec575b6111fb576002908160ff1985541617845568ffffffffffffffffff19161790555f80516020613b29833981519152602060405160028152a180f35b5060026001600160401b03821610156119b1565b503461023f57602036600319011261023f57611a1a612ccd565b5f80516020613b4983398151915290815460ff8160401c168015611a8f575b6111fb576005918260ff1986541617855560018060a01b03166001600160601b0360a01b605254161760525568ffffffffffffffffff19161790555f80516020613b29833981519152602060405160058152a180f35b5060056001600160401b0382161015611a39565b503461023f578060031936011261023f5760ff6020915416604051908152f35b503461023f5761014036600319011261023f576044356001600160401b0381116110ac57611af5903690600401612cf9565b60e4359291906001600160a01b038416840361195657610104356001600160401b03811161100557611b2b903690600401612cf9565b909461012435929091906001600160a01b038416840361195657611b536001600435146134ac565b6001600160a01b03841615611efa576001600160a01b038316865260516020908152604087205490959060ff1615611ebc57611b8e8561337d565b6040519186830160018060a01b038616815260606040850152611bd784611bba8c8860808401916131f2565b6001600160a01b038a16606083015203601f198101865285612e21565b925190922060243592906001600160fd1b0316839003611e895760018060a01b03605254169160405193611c0a85612db4565b6004358552888501526064356040850152608435606085015260a435608085015260c43560a0850152823b15610c7d5760405163e261a9cb60e01b81529389938593909284928392611c5f92600485016134e7565b03915afa80156109df57908691611e75575b5050611c81600435606435613436565b60405191611c8e83612dcf565b6001600160a01b03168252611ca281612eeb565b95611cb06040519788612e21565b8187523682820111611014578186928692838a01378701015282810194855260843560408083019182526001600160a01b03938416606084019081526064358752605086529086209251835494166001600160a01b03199485161783559551805190969392919060018301906001600160401b038111611e6157611d348254613529565b601f8111611e28575b5086601f8211600114611dc3578190899a60039798999a92611db8575b50508160011b915f1990871b1c19161790555b516002820155019160018060a01b03905116908254161790557f692f937d805cd146b9f88bbe97476a1967f0eff2674a00bcd1810c62710a99d460405191608435835260643592a280f35b015190505f80611d5a565b82895287892099601f1983168a5b818110611e1157509160039798999a9b91846001959410611dfa575b505050811b019055611d6d565b01515f1983891b60f8161c191690555f8080611ded565b838301518d556001909c019b928a01928a01611dd1565b611e5190838a52888a20601f840160051c8101918a8510611e57575b601f0160051c0190613023565b5f611d3d565b9091508190611e44565b634e487b7160e01b88526041600452602488fd5b611e7e90612da1565b61072d57845f611c71565b60405162461bcd60e51b815260048101889052600b60248201526a496e76616c6964206d736760a81b6044820152606490fd5b60405162461bcd60e51b8152600481018790526016602482015275149bdd5d195c881b9bdd081dda1a5d195b1a5cdd195960521b6044820152606490fd5b60405162461bcd60e51b8152602060048201526016602482015275496e76616c69642072657475726e206164647265737360501b6044820152606490fd5b503461023f578060031936011261023f575f80516020613b49833981519152805460ff8160401c168015611fa2575b6111fb576004908160ff1985541617845568ffffffffffffffffff19161790555f80516020613b29833981519152602060405160048152a180f35b5060046001600160401b0382161015611f67565b503461023f57602036600319011261023f5760043560408110156110ac5760209060080154604051908152f35b503461023f5761048036600319011261023f576001600160401b03906004358281116110ac57612017903690600401612cf9565b9092366101a411610c95573661042411610c955761046435908111610c9557612044903690600401612d26565b929091338252604960205261205f600160408420541461319c565b3382526049602052612077600160408420541461319c565b604e938454600181018091116125e6575b604d548110156125da57808452604c602052610444356002604086200154116120bc57806120b7918755613001565b612088565b509193949092945b548452604c60205260408420926120d9612fbc565b926101a43593840361258457855b6012811061250857506121376040516120ff81612db4565b6101e43581526102443560208201526102a43560408201526103043560608201526103643560808201526103c43560a082015261306e565b156124cc5760018501548060011b9080820460021490151715612455576003900460018101809111612455578110612469576040516101c43560208201526104443560408201526104243560608201526060815261219481612dcf565b6020815191012094600161044435016104443511612455576040516020810190600161044435018252876040820152604081526121d081612d86565b519020604051906121e082612dea565b600582526454656d706f60d81b60208301526040518092600560c01b60208301528051908b5b82811061243d5750509061222d926048928201906028820152036028810184520182612e21565b6020815191012082156124085787805b84821061231d578989818a8a8a60018060a01b0360025416803b1561072d5784926122899260405195869485938493633b07787160e21b855261042060048601526104248501916131f2565b906101806024808501376101a48301526101c4356101c48301526102406101e48084013703915afa801561100957612309575b50506122ca6101c435612f73565b600655610444356007556040516101c43581527f68b82650828a9621868d09dc161400acbe189fa002e3fb7cf9dea5c2c6f928ee60206104443592a280f35b61231290612da1565b6110ac5781836122bc565b61234c90606083028c019061234360ff9260208101359084604082359201351688613212565b909491946132a0565b60018060a01b0390600182851693845f528860205260405f2054161515036123c3571610156123855761237f9091613001565b9061223d565b60405162461bcd60e51b815260206004820152601660248201527514da59db995c9cc8185c99481b9bdd081cdbdc9d195960521b6044820152606490fd5b60405162461bcd60e51b815260206004820152601960248201527f5369676e6572206973206e6f7420612076616c696461746f72000000000000006044820152606490fd5b60405162461bcd60e51b815260206004820152600d60248201526c4e6f207369676e61747572657360981b6044820152606490fd5b60208282018101516028888401015286945001612206565b634e487b7160e01b87526011600452602487fd5b60405162461bcd60e51b815260206004820152603560248201527f4e6f7420656e6f756768207369676e6174757265732066726f6d2076616c696460448201527461746f727320746f2076657269667920626c6f636b60581b6064820152608490fd5b60405162461bcd60e51b8152602060048201526014602482015273496e76616c696420726563656e7420726f6f747360601b6044820152606490fd5b600181018082116125705761251c906131df565b356002820180831161255c579061253561253c926131df565b3590613561565b60038101809111156120e757634e487b7160e01b87526011600452602487fd5b634e487b7160e01b89526011600452602489fd5b634e487b7160e01b88526011600452602488fd5b60405162461bcd60e51b815260206004820152602860248201527f4f6c6420726f6f7420646f6573206e6f74206d61746368207468652063757272604482015267195b9d081c9bdbdd60c21b6064820152608490fd5b509193949092946120c4565b634e487b7160e01b84526011600452602484fd5b503461023f57602036600319011261023f5760206110fb600435613172565b503461023f576104a036600319011261023f576001600160401b03906004358281116110ac5761264d903690600401612cf9565b9092366101a411610c95573661042411610c955761046435908111610c955761267a903690600401612d26565b9290913382526049602052612695600160408420541461319c565b604e938454600181018091116125e6575b604d5481101561293357808452604c602052610444356002604086200154116126da57806126d5918755613001565b6126a6565b509193949092945b548452604c60205260408420926126f7612fbc565b926101a43593840361258457855b601281106128e6575061271d6040516120ff81612db4565b156124cc5760018501548060011b9080820460021490151715612455576003900460018101809111612455578110612469576040516101c43560208201526104443560408201526104243560608201526060815261277a81612dcf565b6020815191012094600161044435016104443511612455576040516020810190600161044435018252876040820152604081526127b681612d86565b519020604051906127c682612dea565b600582526454656d706f60d81b60208301526040518092600560c01b60208301528051908b5b8281106128ce57505090612813926048928201906028820152036028810184520182612e21565b6020815191012082156124085787805b84821061286f578989818a8a8a60018060a01b0360025416803b1561072d5784926122899260405195869485938493633b07787160e21b855261042060048601526104248501916131f2565b61289590606083028c019061234360ff9260208101359084604082359201351688613212565b60018060a01b0390600182851693845f528860205260405f2054161515036123c357161015612385576128c89091613001565b90612823565b602082820181015160288884010152869450016127ec565b60018101808211612570576128fa906131df565b356002820180831161255c5790612535612913926131df565b600381018091111561270557634e487b7160e01b87526011600452602487fd5b509193949092946126e2565b503461023f578060031936011261023f576005546040516001600160a01b039091168152602090f35b503461023f578060031936011261023f575f80516020613b49833981519152805460ff8160401c1680156129d2575b6111fb576003908160ff1985541617845568ffffffffffffffffff19161790555f80516020613b29833981519152602060405160038152a180f35b5060036001600160401b0382161015612997565b503461023f578060031936011261023f57602061112f61314f565b503461023f57602036600319011261023f57612a1b612ccd565b612a23612e42565b803b15612a4c576001600160a01b03168152605160205260408120805460ff1916600117905580f35b60405162461bcd60e51b8152602060048201526012602482015271526f7574657220686173206e6f20636f646560701b6044820152606490fd5b503461023f57602036600319011261023f57612aa0612ccd565b612aa8612e42565b6001600160a01b031681526049602052604081206001905580f35b503461023f578060031936011261023f576020605554604051908152f35b503461023f57608036600319011261023f576004356001600160401b0381116110ac57612b12903690600401612cf9565b6024359160443591838552602091604a83526040862054611071576003546040516001600160a01b03938892851690612b4a83612d86565b88835287878401526064356040840152813b1561100557612b829460405195869485938493635e65f68960e11b855260048501613323565b03915afa80156109df57612c33575b506005546040516323b872dd60e01b81523360048201523060248201526044810185905293918391859160649183918a91165af1928315612c28577fcf80b092b21d743e1302ae84a7796d12b75cb47ef6b3a19ff386eadfdcb3fd2893612c0b575b50838552604a8252806040862055604051908152a280f35b612c2190833d85116109d8576109c98183612e21565b505f612bf3565b6040513d87823e3d90fd5b612c3f90959195612da1565b935f612b91565b503461023f57602036600319011261023f5760209060ff906040906001600160a01b03612c71612ccd565b168152605184522054166040519015158152f35b503461023f57602036600319011261023f57612c9f612e42565b60043560555580f35b9050346110ac57816003193601126110ac576003546001600160a01b03168152602090f35b600435906001600160a01b038216820361195657565b608435906001600160a01b038216820361195657565b9181601f84011215611956578235916001600160401b038311611956576020838186019501011161195657565b9181601f84011215611956578235916001600160401b038311611956576020808501946060850201011161195657565b9181601f84011215611956578235916001600160401b038311611956576020808501948460051b01011161195657565b606081019081106001600160401b03821117610c8157604052565b6001600160401b038111610c8157604052565b60c081019081106001600160401b03821117610c8157604052565b608081019081106001600160401b03821117610c8157604052565b604081019081106001600160401b03821117610c8157604052565b61080081019081106001600160401b03821117610c8157604052565b90601f801991011681019081106001600160401b03821117610c8157604052565b5f80516020613b09833981519152546001600160a01b03163303612e6257565b60405163118cdaa760e01b8152336004820152602490fd5b6001600160a01b03908116908115612ed3575f80516020613b0983398151915280546001600160a01b031981168417909155167f8be0079c531659141344cd1fd0a4f28419497f9722a3daafe3b4186f6b6457e05f80a3565b604051631e4fbdf760e01b81525f6004820152602490fd5b6001600160401b038111610c8157601f01601f191660200190565b60405190612f1382612dea565b60068252650526f6c6c75760d41b6020830152565b60405190612f3582612dea565b60018252603160f81b6020830152565b60ff5f80516020613b498339815191525460401c1615612f6157565b604051631afcd79f60e31b8152600490fd5b6048546040811015612f9b576008015560485460018101811161176e57600160409108604855565b634e487b7160e01b5f52603260045260245ffd5b9190820391821161176e57565b603f60485480612fd8575b506040811015612f9b576008015490565b5f1981019150811161176e575f612fc7565b6001600160401b038111610c815760051b60200190565b5f19811461176e5760010190565b8051821015612f9b5760209160051b010190565b81811061302e575050565b5f8155600101613023565b356001600160a01b03811681036119565790565b9190811015612f9b5760051b0190565b906006811015612f9b5760051b0190565b60409081519161307d83612db4565b5f9182845282602085015282828501528260608501528260808501528260a0850152825b600681106130e257505050805b600681106130be57505050600190565b6130c8818461305d565b51156130dc576130d790613001565b6130ae565b50905090565b835b8381106130fb575b506130f690613001565b6130a1565b613105828461305d565b51816008015414801561313d575b6131255761312090613001565b6130e4565b508060016131366130f6938861305d565b52906130ec565b50613148828461305d565b5115613113565b613157612f06565b602081519101206115df61316c611589612f28565b51902090565b5f52604f60205260405f2054155f1461319757604b602052600160405f200154151590565b600190565b156131a357565b60405162461bcd60e51b81526020600482015260146024820152732cb7ba9030b932903737ba103090383937bb32b960611b6044820152606490fd5b6012811015612f9b5760051b6101e40190565b908060209392818452848401375f828201840152601f01601f1916010190565b91907f7fffffffffffffffffffffffffffffff5d576e7357a4501ddfe92f46681b20a0841161329557926020929160ff6080956040519485521684840152604083015260608201525f92839182805260015afa156132895780516001600160a01b0381161561328057918190565b50809160019190565b604051903d90823e3d90fd5b5050505f9160039190565b600481101561330f57806132b2575050565b600181036132cc5760405163f645eedf60e01b8152600490fd5b600281036132ed5760405163fce698f760e01b815260048101839052602490fd5b6003146132f75750565b602490604051906335e2f38360e21b82526004820152fd5b634e487b7160e01b5f52602160045260245ffd5b93929190613339916080865260808601916131f2565b9260208091015f905b600382106133505750505050565b82806001928651815201940191019092613342565b90816020910312611956575180151581036119565790565b613386906133d1565b61338c57565b60405162461bcd60e51b815260206004820152601e60248201527f6163636f756e7420697320626c61636b6c6973746564206279205553444300006044820152606490fd5b60055460405163fe575a8760e01b81526001600160a01b0392831660048201529160209183916024918391165afa90811561342b575f91613410575090565b613428915060203d81116109d8576109c98183612e21565b90565b6040513d5f823e3d90fd5b805f52604f60205260405f20541580613498575b1561345d575f52604f60205260405f2055565b60405162461bcd60e51b81526020600482015260136024820152724275726e20616c72656164792065786973747360681b6044820152606490fd5b50604b602052600160405f2001541561344a565b156134b357565b60405162461bcd60e51b815260206004820152600c60248201526b125b9d985b1a59081ada5b9960a21b6044820152606490fd5b939291906134fd9160e0865260e08601916131f2565b9260208091015f905b600682106135145750505050565b82806001928651815201940191019092613506565b90600182811c92168015613557575b602083101461354357565b634e487b7160e01b5f52602260045260245ffd5b91607f1691613538565b8115613723575f9181835260209260548452604092838220600160ff19825416179055604a8552838220548061369f575083600192828152604f87528181205480155f1461365c5750828152604b875283828220015415613654575b8380957f96813a8b234bbe2be894787f4e2d871140bfdf50accf5b29ac94862620e5fde8949591613643575b505b8251918252151587820152a215613600575050565b60649250519062461bcd60e51b82526004820152601c60248201527f526f6c6c757056363a204275726e20776173206e6f7420666f756e64000000006044820152fd5b61364e915085613773565b5f6135e9565b9250826135bd565b94847f96813a8b234bbe2be894787f4e2d871140bfdf50accf5b29ac94862620e5fde8949596145f1461369857613693908561382f565b6135eb565b50806135eb565b9493929094036136df57908082857fe5889382823e45da32d98d9b770d082563fc781d4ad6652bd2739d2494efacde959452604a845220549051908152a2565b815162461bcd60e51b815260048101849052601d60248201527f526f6c6c757056363a20496e76616c6964206d696e7420616d6f756e740000006044820152606490fd5b5050565b1561372e57565b60405162461bcd60e51b815260206004820152601d60248201527f526f6c6c757056363a20496e76616c6964206275726e20616d6f756e740000006044820152606490fd5b5f52604b602052602060405f20916040519261378e84612dea565b60018060a01b039360018583541692838352015493849101528215613827576137f5936137be8360209514613727565b60055416905f60405180968195829463a9059cbb60e01b84526004840160209093929193604081019460018060a01b031681520152565b03925af19081613809575b50613197575f90565b6138209060203d81116109d8576109c98183612e21565b505f613800565b505050505f90565b5f90815260209060508252604090818120825161384b81612dcf565b60018060a01b03808354168252600196878401928887518095889080548c61387282613529565b808652958216918215613a82575050600114613a44575b5061389692500385612e21565b8781019384526002850154936138c1838560038b860199898b52015416966060850197885214613727565b6005548251895163095ea7b360e01b8082529187166001600160a01b03166004820152602481019590955293908a9082908716818b816044810103925af18015613a3a5791613921918b93613a1d575b5085845116905160555491613aa2565b92604485806005541694511691898b519586948593845260048401528160248401525af18015613a13576139f6575b5015613960575b50505050505090565b61396c818351166133d1565b6139ec5760055491519251855163a9059cbb60e01b81529382166001600160a01b0316600485015260248401529193929185918591168184816044810103925af19182156139e25750506139c4575b80808080613957565b816139da92903d106109d8576109c98183612e21565b505f806139bb565b51903d90823e3d90fd5b5050509250505090565b613a0c90883d8a116109d8576109c98183612e21565b505f613950565b87513d88823e3d90fd5b613a3390843d86116109d8576109c98183612e21565b505f613911565b89513d8a823e3d90fd5b915050875284898089208c8a915b858310613a6957505061389693508201015f613889565b80919294505483858b0101520191018a908c8893613a52565b60ff19168582015261389695151560051b85010192505f91506138899050565b6001600160a01b0381165f90815260516020526040812054909384939160ff1615613b015783809360208451940192f1903d15613afd573d90613ae482612eeb565b91613af26040519384612e21565b825260203d92013e90565b5090565b505050509056fe9016d09d72d40fdae2fd8ceac6b6234c7706214fd39c1cd1e609a0528c199300c7f505b2f371ae2175ee4913f4499e1f2633a7b5936321eed1cdaeb6115181d2f0c57e16840df040f15088dc2f81fe391c3923bec73e23a9662efc9c229c6a00a2646970667358221220f5bce56fbbdcea0b84ef58b2403b7808cf44b04a09caa9a89378effb2b254f8b64736f6c63430008140033","linkReferences":{}},"methodIdentifiers":{"DOMAIN_SEPARATOR()":"3644e515","addProver(address)":"1d49e457","addRouter(address)":"24ca984e","aggregateVerifier()":"c072bd88","blockHash()":"f22a195e","blockHeight()":"f44ff712","burn(address,bytes,bytes32,bytes32,bytes32,bytes32)":"cb325833","burnToAddress(bytes32,bytes32,bytes,bytes32,bytes32,bytes32,bytes32)":"82f15a3b","burnToRouter(bytes32,bytes32,bytes,bytes32,bytes32,bytes32,bytes32,address,bytes,address)":"54ace933","burnVerifier()":"c3a716eb","burnVerifierV2()":"a65ddebd","bytes32ToAddress(bytes32)":"5ced058e","containsRootHashes(bytes32[6])":"afbd8c39","currentRootHash()":"a91eebf5","gasPerRouterCall()":"16b5c122","getBurn(bytes32)":"e4408e46","getMint(bytes32)":"a2ce9c1f","getRootHashes()":"c832fe5f","getValidatorSets(uint256)":"ef0feff9","hasBurn(bytes32)":"485ee1e4","initialize(address,address,address,address,address,address,address[],bytes32)":"5eeba6dd","initializeV2()":"5cd8a76b","initializeV3()":"38e454b1","initializeV4()":"54a08606","initializeV5(address)":"5a023693","initializeV6()":"a10e57a8","isRouterWhitelisted(address)":"0aef023f","mint(bytes,bytes32,bytes32,bytes32)":"1000b729","mintVerifier()":"00b0938d","mintWithAuthorization(bytes,bytes32,bytes32,bytes32,address,uint256,uint256,bytes32,uint256,bytes32,bytes32,uint256,bytes32,bytes32)":"b5061658","nextRootHashIndex()":"6779b7c2","owner()":"8da5cb5b","removeRouter(address)":"6ae0b154","renounceOwnership()":"715018a6","rolledUpLeafs(bytes32)":"d9581277","rootHashes(uint256)":"53b93557","setGasPerRouterCall(uint256)":"09fe537d","setRoot(bytes32)":"dab5f340","setValidators(uint256,address[])":"e795594d","substituteBurn(bytes32,uint256)":"ceace3b8","substitutedBurns(bytes32)":"c1b15359","transferOwnership(address)":"f2fde38b","usdc()":"3e413bee","verifyBlock(bytes,bytes32[12],bytes32,bytes32,bytes32[18],bytes32,uint256,(bytes32,bytes32,uint256)[])":"4fb4eee3","verifyBlock2(bytes,bytes32[12],bytes32,bytes32,bytes32[18],bytes32,uint256,(bytes32,bytes32,uint256)[],uint256)":"45873f3f","version()":"54fd4d50","wasBurnSubstituted(bytes32)":"3139332e"},"id":16}