{"abi":[{"type":"constructor","inputs":[{"name":"_across","type":"address","internalType":"address"}],"stateMutability":"nonpayable"},{"type":"function","name":"DOMAIN_SEPARATOR","inputs":[],"outputs":[{"name":"","type":"bytes32","internalType":"bytes32"}],"stateMutability":"view"},{"type":"function","name":"depositV3WithAuthorization","inputs":[{"name":"v","type":"uint256","internalType":"uint256"},{"name":"r","type":"bytes32","internalType":"bytes32"},{"name":"s","type":"bytes32","internalType":"bytes32"},{"name":"v2","type":"uint256","internalType":"uint256"},{"name":"r2","type":"bytes32","internalType":"bytes32"},{"name":"s2","type":"bytes32","internalType":"bytes32"},{"name":"validAfter","type":"uint256","internalType":"uint256"},{"name":"validBefore","type":"uint256","internalType":"uint256"},{"name":"nonce","type":"bytes32","internalType":"bytes32"},{"name":"depositor","type":"address","internalType":"address"},{"name":"recipient","type":"address","internalType":"address"},{"name":"inputToken","type":"address","internalType":"address"},{"name":"outputToken","type":"address","internalType":"address"},{"name":"inputAmount","type":"uint256","internalType":"uint256"},{"name":"outputAmount","type":"uint256","internalType":"uint256"},{"name":"destinationChainId","type":"uint256","internalType":"uint256"},{"name":"exclusiveRelayer","type":"address","internalType":"address"},{"name":"quoteTimestamp","type":"uint32","internalType":"uint32"},{"name":"fillDeadline","type":"uint32","internalType":"uint32"},{"name":"exclusivityDeadline","type":"uint32","internalType":"uint32"},{"name":"message","type":"bytes","internalType":"bytes"}],"outputs":[],"stateMutability":"nonpayable"},{"type":"event","name":"Deposited","inputs":[{"name":"depositor","type":"address","indexed":true,"internalType":"address"},{"name":"nonce","type":"bytes32","indexed":true,"internalType":"bytes32"}],"anonymous":false},{"type":"error","name":"ECDSAInvalidSignature","inputs":[]},{"type":"error","name":"ECDSAInvalidSignatureLength","inputs":[{"name":"length","type":"uint256","internalType":"uint256"}]},{"type":"error","name":"ECDSAInvalidSignatureS","inputs":[{"name":"s","type":"bytes32","internalType":"bytes32"}]}],"bytecode":{"object":"0x60803461007357601f61090638819003918201601f19168301916001600160401b038311848410176100775780849260209460405283398101031261007357516001600160a01b03811690819003610073575f80546001600160a01b03191691909117905560405161087a908161008c8239f35b5f80fd5b634e487b7160e01b5f52604160045260245ffdfe60806040526004361015610011575f80fd5b5f803560e01c80633644e515146105b55763eb2320b114610030575f80fd5b346105b2576102a03660031901126105b25761012435906001600160a01b03821682036105b25761014435916001600160a01b03831683036104e45761016435926001600160a01b03841684036105ae5761018435936001600160a01b03851685036105aa57610204356001600160a01b03811681036105a657610224359163ffffffff80841684036105a2576102443597818916890361059e57610264359082821682036105275767ffffffffffffffff610284351161052757366023610284350112156105275767ffffffffffffffff61028435600401351161052757366024610284356004013561028435010111610527576040516101436004610284350135601f01601f19166020018261061c565b61028435600481013580835290602401602083013760206102843560040135820181018b9052815191810191909120604080517fb1808774e6a3862b691460baf364a9bb51d8654fecf525cc3f1c4eddb9419f689381019390935260c4359083015260e43560608301526101043560808301526001600160a01b038a811660a084015289811660c084015286811660e08401528381166101008401526101a4356101208401526101c4356101408401526101e43561016084015287166101808301528488166101a08301528b85166101c08301528385166101e0830152610200808301919091528152610220810180821167ffffffffffffffff9091111761058a5761022081016040526020815191012061025c61063e565b906040519161190160f01b6020840152602283015260428201526042815280608081011067ffffffffffffffff60808301111761058a576102bc8160806102c593016040526020815191012060a435906084359060ff6064351690610733565b909291926107c1565b6001600160a01b03898116911603610554576001600160a01b0384163b1561052757604051996377aadf6360e11b8b5260018060a01b03891660048c01523060248c01526101a43560448c015260c43560648c015260e43560848c01526101043560a48c015260ff6004351660c48c015260243560e48c01526044356101048c0152898b610124818360018060a01b038a165af180156105335761053e575b895460405163095ea7b360e01b81526001600160a01b0391821660048201526101a43560248201529a9b5098998b99602090829060449082908e908b165af18015610533576104f7575b5088546001600160a01b031694853b156104f357604051633dc9c91960e11b81526001600160a01b038c81166004808401919091529a8116602480840191909152928116604483015293841660648201526101a4803560848301526101c43560a48301526101e43560c48301529790931660e48401529684166101048301528316610124820152911661014482015261018061016482015261028435948501356101848201819052909486948694910190840137826101a461028435600401358401015281836101a482601f19601f6102843560040135011681010301925af180156104e8576104d0575b505061010435906001600160a01b03167f07c395f9699f5c4d4e90df65ab0ea5d135089f597219b61c81445b8785c75b588380a380f35b6104d9906105d8565b6104e457815f610499565b5080fd5b6040513d84823e3d90fd5b8980fd5b6020813d60201161052b575b816105106020938361061c565b810103126104f3575180151503610527575f6103ae565b8880fd5b3d9150610503565b6040513d8c823e3d90fd5b9798909961054b906105d8565b97968990610364565b60405162461bcd60e51b815260206004820152600e60248201526d24b73b30b634b21039b4b3b732b960911b6044820152606490fd5b634e487b7160e01b8a52604160045260248afd5b8780fd5b8680fd5b8480fd5b8380fd5b8280fd5b80fd5b50346105b257806003193601126105b25760206105d061063e565b604051908152f35b67ffffffffffffffff81116105ec57604052565b634e487b7160e01b5f52604160045260245ffd5b6040810190811067ffffffffffffffff8211176105ec57604052565b90601f8019910116810190811067ffffffffffffffff8211176105ec57604052565b7f4163726f737357697468417574686f72697a6174696f6e000000000000000000602060405161066d81610600565b601781520152603160f81b602060405161068681610600565b60018152015260405160208101907f8b73c3c69bb8fe3d512ecc4cf759cc79239f7b179b0ffacaa9a75d522b39400f82527f1ebcbe7a0999f3d17724384372eb5ab92c9d2107035426aa52c0fa5afbf32fce60408201527fc89efdaa54c0f20c7adf612882df0950f5a951637e0307cdcb4c672f298b8bc660608201524660808201523060a082015260a0815260c0810181811067ffffffffffffffff8211176105ec5760405251902090565b91907f7fffffffffffffffffffffffffffffff5d576e7357a4501ddfe92f46681b20a084116107b657926020929160ff6080956040519485521684840152604083015260608201525f92839182805260015afa156107aa5780516001600160a01b038116156107a157918190565b50809160019190565b604051903d90823e3d90fd5b5050505f9160039190565b600481101561083057806107d3575050565b600181036107ed5760405163f645eedf60e01b8152600490fd5b6002810361080e5760405163fce698f760e01b815260048101839052602490fd5b6003146108185750565b602490604051906335e2f38360e21b82526004820152fd5b634e487b7160e01b5f52602160045260245ffdfea2646970667358221220a007e45854ae2965bc17d9f631cf44a3f5ba91e04fb33ab7257dcf74bfe741bc64736f6c63430008140033","linkReferences":{}},"methodIdentifiers":{"DOMAIN_SEPARATOR()":"3644e515","depositV3WithAuthorization(uint256,bytes32,bytes32,uint256,bytes32,bytes32,uint256,uint256,bytes32,address,address,address,address,uint256,uint256,uint256,address,uint32,uint32,uint32,bytes)":"eb2320b1"},"id":2}